:020000040000FA
:06000000CCEF0DF0120030
:020006001200E6
:0600080004EF20F01200DD
:060018000CEF20F01200C5
:02001E000100DF
:0C002000B41B00008E0000000F00000068
:04002C0069EC06F085
:10003000A098636A626A0F01266BB3EC05F00F01AA
:1000400001EC06F0DF6AE9EC05F003E299EC05F05B
:10005000FAD7658C0F01386B6598659C62A607D04E
:1000600062960001736B786B796B7A6BF7D700013E
:10007000010E8A6F8B6F8C6B8D6B806BDF6A020E4B
:10008000DF5C11E2EA6ADF346CEC06F0EA22EE6A29
:10009000ED6AEA6ADF3473EC06F0EA22EE6AED6A92
:1000A000A9EC05F0ECD70001080E6B6F040E6C6F25
:1000B0000F01160E266F0401200E026F040E036F4F
:1000C000080E016F840E006F0001616B606BE552DA
:1000D00073EF05F069EC06F0000160510CE1656A10
:1000E0000F01366B01EC06F065B602D06586FCD7D1
:1000F0000001010E606F60050AE165BA08D0626A0E
:100100000F01366B368136890001020E606F625036
:10011000040B06E00F013651040B02E0629425DB6C
:1001200065B242D06250010B09E00F013651010B5C
:1001300005E07CDF0001040E606F62906250100BDE
:1001400006E00F013651100B02E004DB629862AC4E
:1001500009D00F0136AD05D008EC06F0730E60EC47
:1001600005F0629C6250200B05E00F013651200B18
:1001700001E0DFDA6250020B0CE00F013651020B96
:1001800008E008EC06F0E6687F0EE66E7AEC06F012
:10019000636A040E0001E76E6019E8AE02D0E7342E
:1001A00002D0E750605D02E2A1982FD00F0136A780
:1001B0002BD0DF6A040EDF5C27E262A625D064CF75
:1001C00081F000018151780BE842E842E842826FF9
:1001D000629681B504D0825181EC06F003D0825141
:1001E00086EC06F0EA22EF70825102E1CBDA0AD007
:1001F000000EE66EE66A810EE66E000EE66E720E88
:1002000060EC05F0DF2AD6D7A198E55273EF05F030
:100210003BEC06F0FD0EDBA403D0E66AF1EC05F042
:10022000FD0EDBA204D0010EE66EF1EC05F0FE0E31
:10023000DB500C6A260F0B6E0F0EE3EC05F064EC3E
:1002400005F0FD0EDBCFEFFF020EE15C02E2E16A9A
:10025000E552E16E73EF05F03BEC06F0FD0EDB506E
:1002600003E05BEC05F002D08AEC05F0CFEC05F082
:10027000D9CFE9FFDACFEAFFEE50ED1003E1F36AE0
:10028000F46A28D064EC05F095EC06F0FB0EDBCFA9
:10029000EEFFFC0EDBCFEDFF64EC05F0EE52FA0E44
:1002A000DBCFEFFF400E8BEC06F0880E9AEC06F0E9
:1002B000FD0EDB5003E05BEC05F002D08AEC05F0AC
:1002C000EA22EF74DECF0BF0DDCF0CF00BC0F3FFB2
:1002D0000CC0F4FF020EE15C02E2E16AE552E16E5D
:1002E00073EF05F03BEC06F0FE0EDB5003E149EC4A
:1002F00006F009D08FEC05F029EC06F08FEC05F044
:10030000010F29EC06F0020EE15C02E2E16AE5521F
:10031000E16EE9D3E3DB65A816D05AEC06F0400E97
:10032000EE16EE6AEE6AEE6A5AEC06F0EE7CC3DB7D
:10033000EA22EF74400E0B6E5AEC06F00B50EF16EB
:100340005AEC06F0EF7CCFD300018A5122E1010E76
:100350008A6F8B511EE1010E8B6F020E705D07E1FB
:10036000B8DBEE52EF6AB5DBC80EEF6E1200700517
:1003700010E1836BC4DBEE52080EEF6EC0DB35EC90
:1003800006F0BDDB840EEF6E010E836F90DB800EF6
:10039000EF6E120000018C6B8D6B020E705D06E13A
:1003A0008FEC06F0B1DB24EC06F010D074510401A0
:1003B000265D000175510401275904E226C474F03A
:1003C00027C475F061D885DB9FDB83DBC80EEF6E39
:1003D00012003BEC06F0000EDE6E040EDD6E9FDBBD
:1003E000040DF4CF0CF0D9CFE9FFDACFEAFFF350D8
:1003F000EE260C50ED2268DBEF9EFD0EDB5002E195
:1004000089DB01D058DBEA22DECFEEFFDDCFEDFF46
:100410005BDBEF9C59DB040EE926000EEA22EF8C31
:10042000020EE15C02E2E16AE552E16E5CD365989E
:10043000000173BF0DD078AF09D0020E706F8D51DF
:1004400001E1A8DF00018B6B8A6B120049EF06F017
:10045000040120AF0DD00001010E706F8C5101E13D
:1004600099DF00018B6B8A6B89510DE1A4EF01F0DC
:100470000001020E706F1BDB840EEF6E8B6B8A6BBC
:10048000895101E161DF120069EC06F0080EDF6EB0
:100490000001745D000E75590AE274C0DFFF6F51F0
:1004A00002E1010E03D06F0502E1020E6F6FDF5013
:1004B0000C6AE850745D746F0C507559756F09DBE8
:1004C000EE52DFCFEFFF280E7D6F040E7E6F73B10B
:1004D0000DD0DF5017E071C0F6FF72C0F7FF712B2F
:1004E000000E72230800F5504DDBF3D7DF500AE011
:1004F00071C0E9FF72C0EAFF712B000E7223EF504A
:1005000041DBF4D7E552EFD2B6DBF9DAEE52EFCFAA
:10051000DFFFDFCF0BF00B500001795D000E7A5941
:1005200002E279C0DFFFDF500B6E0C6AE850795DA4
:10053000796F0C507A597A6F010EDB6ADF50F36ED7
:10054000010EDBCFF4FFF350F45C16E2010EDB503A
:10055000EA6A280FE96E040EEA22EF50E66E76C0D2
:10056000E9FF77C0EAFF762B000E7723E552E750CC
:10057000EF6E010EDB2AE2D7000ED8807955000E0F
:100580007A550DE2CCDBC0DABADAEF50400B03E16A
:100590005BDBC80E02D058DB880EEF6E12D087DA14
:1005A000840EEF6E7B517C1107E005D07CC0FAFF12
:1005B00000017B51F96EFADF0001789F895101E15A
:1005C000C3DE020EE15C02E2E16AE552E16E8BD22B
:1005D00080DB0001738FC7DADF6AFBDA02E2A9DA97
:1005E000FCD7658CDF6A020EDF5C02E2B2DAFBD771
:1005F000010EE66EE66AE66A620EE66E000E61DBEA
:10060000659C0001080E6B6F040E6C6F000E636F2B
:10061000040E646F63C065F0666F22C461F06151BF
:1006200002E1100E0BD0010EE66EE66A610EE66E78
:10063000000EE66E010E44DA0001200E606FE552F6
:1006400052D2800E0401205D38E10001C00E736FAC
:1006500004012351030A1AE0010A09E0030A2BE10D
:100660000001E60E716F180E726F120E1ED0DEDAE8
:10067000880EF626190EBDDA020E0001D0DAF5CF8B
:1006800074F0030ECCDAF5CF75F01200030E225D84
:100690000FE2CCDA8A0EF626190EABDA71C0F6FF3D
:1006A00072C0F7FF0800F5500001746F756B1200FF
:1006B0000001736B12000001736B1200DCDA04019D
:1006C000286B296B20511F0B020A11E0030A0CE072
:1006D000010A1EE10001738F0401288100017F05DA
:1006E00017E10401288314D00001738F11D0000199
:1006F000738F040124BF02D0D3DA01D0D6DA4FDAE7
:10070000DCDA06E0E1D9EF50040B02E0010E286FBD
:10071000000173AF07D0280E716F040E726F7381E2
:10072000020E746F020EE15C02E2E16AE552E16ED4
:10073000DAD10F0126A10CD0E2D9EF50800807E1F1
:10074000C8D9EF50840803E1DAD98C0EEF6E2691F8
:10075000629A12000F013685629865820001010ECF
:10076000806F23DA750E60EF05F00001806B1DDAF3
:10077000740EA6D965920F01369562A402D06294D8
:10078000FCD71200A6DAFD0E0001811539E17E0EBC
:100790008115E8407F0B040DF3CF63F0F4CF64F0D4
:1007A000000E6327040E642363C065F064C066F026
:1007B0006575A5D9EF503C0BE842E8420D081EE1F3
:1007C000DF6A080EDF5C16E29AD9020EE926000EF7
:1007D000D3D9EF50E66EDF50EA6A200FE96E040EBF
:1007E000EA22E552E750EF6E8AD99FDAEE2AEF222D
:1007F000DF2AE7D784D939DA0AD807D023D805D039
:10080000FD0E8115040801E12CD8E5526CD10001E0
:100810006F6B896B8C6B8D6B836B706B5AD9EF9E92
:100820006B7557D9EF9E6B750FDAEF9E736B746B18
:10083000756B786B796B7A6B51D8B7D9030E40D949
:1008400017EF02F0020E0001705D02E184EF02F08A
:10085000706B835104E12BD98C0EEF6E1200836B09
:10086000120037DA36D9EF50400B01E0010EDF6E8F
:1008700000016B75080E605D0BE122C438FF0F01AB
:10088000385103E00001100E02D00001040E606F29
:10089000700513E11ED938D9F7DD020E00016F5D36
:1008A00003E117D9840E07D0DF5003E112D9C80E37
:1008B00002D00FD9880EEF6E0FD078AF0CD07B51DD
:1008C0007C1107E005D07CC0FAFF00017B51F96E76
:1008D000FADF0001789F706BE55205D104012051C9
:1008E000600BE842E842E842E842E842000901E0E1
:1008F000120021510C0A45E00B0A3FE00C0A31E0DE
:10090000010A22E00B0A1EE0020A1CE0030A18E0BA
:10091000080A10E0010A0CE00F0A08E0030A01E0EF
:1009200012000001738F080E606F120021EF03F0B8
:10093000E8EF02F00001610E716F000E726F0CD0D3
:100940005EEF03F0C2EF04F024510001716F726B8F
:10095000620E7127000E72237381010E746F738F04
:1009600012000001738F04012451EA6A620FE96EDC
:10097000000EEA2222C4EFFF120017D9020E60EF28
:1009800005F01200ABD8050EE1260401220510E1A6
:1009900020511F0B00090CE10001738F030E0401AD
:1009A000215D04E10001010E7F6F02D000017F6B29
:1009B0000401225101E074D020511F0B020870E1A4
:1009C00024510F0B00096CE024510F0B010868E360
:1009D000200E0001605D64E1738F040124BF04D028
:1009E0005FD9DDD8E8D803D060D9D9D8E8D8EA22D1
:1009F000020EEFCFDBFF21D9010B03E1000EDF94E4
:100A000001D0DF8424BF02D04BD901D04ED9EA22D5
:100A1000DECFEEFFDDCFEDFF030E215D0CE14DD902
:100A200007E024BF02D0C7D801D0C9D8EA22EF829C
:100A3000840E80D935D0DF7440D906E045D8EF9ECA
:100A400043D8EF8C1CD902D03FD8EF8CDF74F5D897
:100A5000020B02E132D90DE0040124BF02D0ABD871
:100A600001D0ADD8EA22EF923B0E0B6E54D907D9D4
:100A700002D03B0E50D9040124510F0B0C6A260FF3
:100A80000B6E0F0E0C22030E0BC0DBFF040E0CC00E
:100A9000DBFF030EDBCFE9FF040EDBCFEAFFEF90B5
:100AA000050EE15C02E2E16AE552E16E1CD037D945
:100AB000DCD824EF06F0FE0EEA6ADB346CEF06F0B9
:100AC000E66EE66A7AEF06F0DECFE9FFDDCFEAFFF9
:100AD00012006BC0E9FF6CC0EAFF1200D9CFE6FF3D
:100AE000E1CFD9FF1200E552E7CFD9FF1200245120
:100AF0000F0BE96EEA6AD890E936EA36120063C055
:100B0000E9FF64C0EAFF120010D9280EEE6E040E51
:100B1000ED6E1200FE0EEA6ADB3473EF06F0FD0E96
:100B2000DB50E8240D6EFE0EDB50040DF3500D2457
:100B30001200DF50040DF3CFE9FFF4CFEAFF000EFF
:100B4000E926040EEA22EE6AEE6AEE6AEE6ADF2A0F
:100B50001200DF50DBD8EA22EF6ADF50D2D8EA2257
:100B6000EF6ADF2A1200010EE66EE66AE66A270ED9
:100B7000E66E0F0E61EF06F0EA22EE50EFCFEAFFCD
:100B8000E96E1200E66E7DC0E9FF7EC0EAFF7D2BB4
:100B9000000E7E23E552E750EF6EDF061200EA22D8
:100BA000EECFDEFFEDCFDDFF1200000EE66EE66A4F
:100BB000E66EE66A120024510F0B81EF06F0245115
:100BC0000F0B86EF06F00C220BC0DEFF0CC0DDFF22
:100BD0001200DF500B6E0C6A080E0B5C000E0C58F6
:100BE0001200FE0EDBCFE6FFE9EC01F0E552E55224
:100BF0001200F7220900F5CF71F00A00F5CF72F06C
:100C00001200160E396F9F0E376F7B0E366F120073
:100C1000010EE66EE66A000EE66EE66A1200F76AFC
:100C20007125F66E7251F722080012002251F66EFD
:100C3000F76AD890F636F7361200D950020FE96EEF
:100C4000DACFEAFFEF50120065C0E9FF66C0EAFFA5
:100C50001200040DF3CF0BF0F4CF0CF0000E0B26B6
:100C6000040EB1DF840E9AEF06F05FD8200EEE6E10
:100C7000040EED6E120032DF020EE1261200020EAB
:100C8000E66EE66ADECFE6FFDDCFE6FF050E60EF3B
:100C900005F00DDF8C0EEF6E1CDF840EEF6E120080
:100CA00026DF670EE926000E120021DF6B0EE92613
:100CB000000E120000DFBCEF05F006DFEF50800BE6
:100CC0001200E66E8BEC0DF00B6E050EE15E0B5024
:100CD000120004DFE6521200FE0BEA36E96E6B0EDC
:100CE000E926000E1200FE0BEA36E96E670EE926D1
:100CF000000E1200AFEC08F00B6E060EE15E0B501A
:100D00001200EA6A860FE96E000E1200EA6A840F8A
:100D1000E96E000E1200D8DEE850EF16120094DFE4
:100D2000EE52080EEF6E24EF06F0020EE926000EDA
:0C0D3000EA221200C9DEE850EF121200A7
:040D3C00E0DA030EE8
:100D4000E126020EDB68DE6ADD6AC5DAFC0EDB50E6
:100D500000010CAE02D0D89003D00B5C000E0C58F2
:100D600019E2FD0EDBCF0BF0FE0EDBCF0CF0DE50F8
:100D70000B24E96EDD500C20EA6E020EDBCFE7FF9C
:100D8000EF50E71A020EE7CFDBFFDF2A010EDDE3AB
:100D9000DB2ADBD7020EDB500B6E030EE15C02E2B6
:100DA000E16AE552E16E0B50AFD200019451270A7F
:100DB00005E0030A01E011D0FF000FD00B6A400EDE
:100DC0000C6E04D00CC0FAFF0B50F96EFBDF030E63
:100DD000E66ED9EC09F0E55200D00001946B1200E8
:100DE0008EDA080EE126070EDB6A00019A07000E74
:100DF0009B5B9A519B1105E1030E841A9A692F0E91
:100E00009B6F200E0001E76E6019E8AE02D0E73458
:100E100002D0E750605D01E267D16550020B01E04E
:100E200063D100019651971102E1000E08D096C0DF
:100E3000E9FF97C0EAFFEF50800B01E0010E0009C7
:100E40000AE09551952BFF0801E04ED1945101E144
:100E50004BD1ABDF49D1956B400EE66EE66AE66892
:100E6000400EE66E0E0E54DA060E00CEDBFFDB50AF
:100E7000400A01E109D1680A01E1DCD00F0A01E171
:100E8000D0D0010A01E183D0030A5CE00C0A1AE029
:100E90002E0A0DE0230A08E0140A01E0FCD00F0E30
:100EA00081140E01426FFCD00001240EC1D0060E49
:100EB000E66EE66A8E0EE66E000EE66E420EE66E98
:100EC0000E0E92D0FF0E00019C5D01E1AED028DA3B
:100ED00064E3020EE66EE66A030EE66E0E0EE66E42
:100EE000D950020FE66E000EDA2003DAE15E0B50F5
:100EF000020EDBCF0FF0030EDBCF10F0DE500F241D
:100F00000B6EDD5010200C6E0D6A0E6A0BC0E6FFF2
:100F1000E66E0DC0E6FF0EC0E6FFDECF11F0DDCFBE
:100F200012F0136A146A11C0E6FF12C0E6FF13C084
:100F3000E6FF14C0E6FF93EC0BF0156E080EE15EC1
:100F40001550AED0FF0E00019C5D6FE08FD9040EEE
:100F500003CEDBFFDB503C0829E3430EE66E0E0EAA
:100F6000E66E040EDBCFE6FFE66AB5D9A9D917EC29
:100F70000DF00F6E080EE15E0F50040EDBCFE6FFA2
:100F8000430EE66E0E0E92D9DBCF42FE89D0FF0EE5
:100F900000019C5D4AE0C4D903E2070EF36E7ED0E7
:100FA000040E03CEDBFFDB50200802E2080E74D0F3
:100FB000040EDBCFE6FF050EE66E0E0E77D9DB5092
:100FC0000E01045D02E0090E67D0DF50200B0EE138
:100FD000400EE66EE66AE668800EE66E0E0E98D962
:100FE0007FD9800EE66E0E0E84D94BD079D9A00E33
:100FF000E66E0E0E7ED9E15E0B50800EE66E0E0E92
:10100000E66E400EE66EE66A66D9200E0B5E000EB6
:101010000C5A56D9A4EC0AF00F6E080EE15E0F5080
:101020003FD0FF0E00019C5D02E1110E35D0270E6E
:10103000946F36D00E01015102E00A0E2DD001CE80
:101040009CF0010EE66ED80EE66EE66AE66AE66A87
:10105000E66EE66AE66A93EC0BF00B6E080EE15E54
:101060000B50010EE66E0E0EE66E010EE66EE66A9F
:10107000E66AD80EE66EE66AE66AA4EC0AF00B6E43
:10108000080EE15E0B500CD01FEC0AF0E76E070E65
:10109000E7CFDBFF05D00B0EF36E070EF3CFDBFFC0
:1010A00000019851991102E1000E08D098C0E9FFA3
:1010B00099C0EAFFEF50800B01E0010E000913E137
:1010C000070EDBCF40FE060EDBCF41FE400EE66E84
:1010D000400EE66E0E0EE66E010EE66E28D9F3CFD8
:1010E00098F0F4CF99F0D4D8080EE15C02E2E16AFE
:1010F000E552E16E09D103D9020EE126580EDE6EEB
:10110000020EDD6E9B8CDFCF0BF0DF06010EDBCF16
:101110000CF001E2DB060B500C10F5E10F01486901
:101120004969F00E926E9368946895683C0E966ECD
:10113000020E846E16EC00F0020EE15C02E2E16A3F
:10114000E552E16EE1D00FEF0CF01E0EE66E010EDF
:10115000E66E08EC01F0E552E55248EF09F0CFD811
:10116000FD0EDBCF06F0FE0EDBCF07F0050E0618F6
:1011700001E1075012E0030E061801E107500CE0F0
:10118000010E061801E1075005E0720E061805E190
:10119000075003D0DADF01D0D6DF010EB5D0D9CFAA
:1011A000E6FFE1CFD9FF020EE126DE68DD68FC50E4
:1011B000800B03E1FC50400B05E0100EE66ED9EC0D
:1011C00009F0E552D0B605D0060EE66ED9EC09F06E
:1011D000E552D9CFE6FFDACFE6FF020EE66EE66A09
:1011E000E66A400EE66EE66AE66A17EC0DF00B6EF4
:1011F000080EE15E0B509C0EE66E000EE66E010ED0
:10120000E66EE66AE66AD80EE66EE66AE66A17EC0D
:101210000DF00B6E080EE15E0B50D050100B16E077
:10122000D9CFE9FFDACFEAFFFF0EEE1802E1FF0E99
:10123000ED180CE000019C0509E10B6A400E0C6EF4
:1012400004D00CC0FAFF0B50F96EFBDF54DF040032
:101250006AEC00F0C5DDFBD7020EE15C02E2E16A58
:10126000E552E16EE552E7CFD9FF1200020EE66EBD
:10127000E66A010EE66E0E0EE66ED9CFE6FFDACF15
:10128000E6FF60EC0DF00B6E060EE15E0B501200F7
:10129000400EE66E000EE66E0E0EE66EE66A010E7B
:1012A00046D8F3CF96F0F4CF97F01200E66E46DD05
:1012B000E552E552E552E76E050EE7CFDBFF12007F
:1012C0000D6A0E6A0BC0E6FF0CC0E6FF0DC0E6FF1C
:1012D0000EC0E6FF1200DECF0BF0DDCF0CF01200E7
:1012E000040EDBCFE6FFE66A050EE66E0E0EE66E36
:1012F0001200E66E60EC0DF00B6E060E1200D9CFF8
:10130000E6FFE1CFD9FF1200E552E7CFD9FF120087
:10131000E66E8BEC0DF00B6E050EE15E0B501200CD
:10132000A5DFD9DF000E0B5C400E0C581200E66EF4
:0E1330002CEC01F00B6E050EE15E0B5012006E
:02133E008050DD
:10134000040B01E0010E0B6E8050080B01E0010E52
:10135000E8240B241200EAD8FE0EDB50010BE8B0A3
:101360008084E8A08094FE0EDB50020BE8407F0BE7
:10137000E8B08086E8A08096DED08050010B0B6E2E
:101380008050020B01E0010EE8240B241200CED89D
:10139000FE0EDB50010BE8B08080E8A08090FE0ECE
:1013A000DB50020BE8407F0BE8B08082E8A080921F
:1013B000C2D0BCD8E652C0903C0E966EDF6AFE0EDC
:1013C000DB50DF5C07E2020E846EB9D8846AB7D8BE
:1013D000DF2AF5D7B4D8B3D8F1D7A8D8040EE126C0
:1013E000020EDB6A030E80CFDBFFDE6ADD6ADECF32
:1013F0000BF0DDCF0CF0FF0E0B5CFF0E0C5814E26F
:10140000FE0EDB50F36E020EDBCFF4FFF350F45C04
:101410000BE2030EDB50805C02E0020EDB2ADF2AC7
:10142000010EE5E3DB2AE3D7020EDB500B6E040E60
:10143000E15C02E2E16AE552E16E0B507CD076D8C5
:10144000050EE126030EDF6EE66AA1DFE55295DFA9
:10145000000907E1030EE66E9ADFE5528EDF03080E
:1014600002E0180E4AD0E66A76DFE55268DF00092E
:1014700007E1030EE66E6FDFE55261DF030802E06D
:10148000170E3BD0E66A4AD8010EE7CFDBFF030E0A
:10149000E66E44D8020EE7CFDBFFE66E3FD8030EC0
:1014A000E7CFDBFFDF50F36E010EDB50F35C0EE0A5
:1014B000DF50F36E020EDB50F35C08E0DF50F36E9A
:1014C000030EDB50F35C02E0130E17D0DF50F36E17
:1014D000010EDB50F35C02E0140E0FD0DF50F36E10
:1014E000020EDB50F35C02E0150E07D0DF50F36E06
:1014F000030EDB50F35C06E0160EF36E040EF3CF22
:10150000DBFF02D0040EDB6ADB500B6E050EE15CE4
:1015100002E2E16AE552E16E0B500DD01CDFE552AC
:10152000DFCFE6FF5ADFE552E76E1200D9CFE6FFC4
:10153000E1CFD9FF1200E552E7CFD9FF1200E668EC
:08154000A5EC0DF0E5521200CC
:08154800D9CFE6FFDACFE6FF80
:10155000E1CFD9FFE2CFDAFF060EE12402E3E16832
:10156000E652E16EDF6A010EDB6AD950FA0FE96ECE
:10157000FF0EDA20EA6E020EEECFDBFF030EEECF97
:10158000DBFF040EEECFDBFF050EEECFDBFFD95005
:10159000FA0FE96EFF0EDA20EA6E060EE76ED890BB
:1015A000030EEB32020EEB32010EEB32EF32E706A6
:1015B000F6E1D950FA0FE96EFF0EDA20EA6E060E58
:1015C000E76ED890EF36010EEB36020EEB36030EC7
:1015D000EB36E706F6E1D950FA0FE96EFF0EDA2096
:1015E000EA6E400EEE26000EEE22000EEE22000EF7
:1015F000EE22FA0EDBCF0FF0FB0EDBCF10F0FC0E6D
:10160000DBCF11F0FD0EDBCF12F0D950020FE96EE7
:10161000000EDA20EA6EEE500F5C0B6EEE501058A2
:101620000C6EEE5011580D6EEE5012580E6E0B509F
:10163000DF6ED950F80FE96EFF0EDA20EA6EEE5039
:10164000ED1065E0040EDB50F86E030EDB50F76E14
:10165000020EDB50F66EDF50DF0600091AE0F60ED0
:10166000DBCFE9FFDB2AF70EDBCFEAFF01E3DB2A62
:10167000EF50F56E0D00F80EDB06DBCF0BF0F90E28
:1016800001E2DB06DBCF0CF00B500C1001E101D0C6
:10169000E2D7040EDB50F86E030EDB50F76E020E3D
:1016A000DB50F66EA684F2AE04D0F29EDE52010E3E
:1016B000DD6E550EA76EAA0EA76EA682A694010E29
:1016C000DB5003E0F28E010EDB6A400EDF6E400E4F
:1016D0000B6E0C6A0D6A0E6AD950020FE96E000E8D
:1016E000DA20EA6EEE500B26EE500C22EE500D2260
:1016F000EE500E22020E0BC0DBFF030E0CC0DBFF10
:10170000040E0DC0DBFF050E0EC0DBFF92D7060EE8
:10171000E15C02E2E16AE552E16EE552E5CFDAFF13
:06172000E7CFD9FF120023
:0A172600D9CFE6FFDACFE6FFE1CFEE
:10173000D9FFE2CFDAFFE652E652E652E652E6522F
:10174000DF6AD950FA0FE96EFF0EDA20EA6E010E59
:10175000EECFDBFF020EEECFDBFF030EEECFDBFFA3
:10176000040EEECFDBFFF60EDBCF0BF0F70EDBCF78
:101770000CF0F80EDBCF0DF0F90EDBCF0EF048D8F1
:101780000B50EE5C0C50EE580D50EE580E50EE58CB
:1017900033E2030EDB50F86E020EDB50F76E010EE3
:1017A000DB50F66EA684A688F2AE03D0F29E010E40
:1017B000DF6E550EA76EAA0EA76EA682DF5001E05F
:1017C000F28E0B6A040E0C6E0D6A0E6A21D8EE5072
:1017D0000B26EE500C22EE500D22EE500E22010E82
:1017E0000BC0DBFF020E0CC0DBFF030E0DC0DBFFE6
:1017F000040E0EC0DBFFB7D7050EE15C02E2E16A22
:10180000E552E16EE552E5CFDAFFE7CFD9FF1200EE
:0E181000D950010FE96E000EDA20EA6E1200C8
:02181E000401C3
:1018200020511F0B010801E01200245101E01200B9
:10183000060E215D1EE12351230A1BE0010A0CE084
:10184000030A17E10001610514E100010A0E716F3E
:10185000190E726F090E09D0000161050AE100013D
:101860006B0E716F190E726F1D0E746F756BC00E5B
:10187000736F04012051600BE842E842E842E842FD
:10188000E842010801E0120021510B0A26E0080A93
:1018900019E0090A11E0080A05E00B0A23E0080A2A
:1018A00021E012000001A70E716F000E726F010E91
:1018B000746F756BC10E0FD00001800E736F23C45F
:1018C000A7F012000001A80E716F000E726F010EDA
:1018D000746F756B810E736F12000001800E736F51
:0618E00022C4A8F0120072
:0A18E60012010002000000083F2775
:1018F000001002000102000109022900010100C0DC
:1019000096090400000203000000092111010001F2
:10191000221D000705810340000107050103400067
:1019200001040309041A0348007500670068007386
:10193000006B00690020004C00740064002E002C35
:101940000343006F006C006F007200480075006771
:10195000002000280062006F006F0074006C006FB0
:1019600000610064006500720029000600FF0901A3
:10197000A10119012940150026FF00750895408135
:1019800002190129409102C0F818211925193F199F
:101990001E0EF66E000EF76E000EF86E00010900C6
:1019A000F550A26F0900F550A36F03E1A26701D0C3
:1019B0003DD00900F5509D6F0900F5509E6F09005C
:1019C000F5509F6F09000900F550E96E0900F550C8
:1019D000EA6E090009000900F550A06F0900F550F2
:1019E000A16F09000900F6CFA4F0F7CFA5F0F8CF5A
:1019F000A6F09DC0F6FF9EC0F7FF9FC0F8FF000154
:101A0000A05302E1A15307E00900F550EE6EA007D4
:101A1000F8E2A107F9D7A4C0F6FFA5C0F7FFA6C05A
:0E1A2000F8FF0001A207000EA35BBFD7120063
:021A2E00D9CF0E
:101A3000E6FFDACFE6FFE1CFD9FFE2CFDAFFE652E9
:101A4000E652E652E652D9CFE9FFDACFEAFFFA0EC4
:101A5000DBCFEEFFFB0EDBCFEEFFFC0EDBCFEEFFAE
:101A6000FD0EDBCFEEFF020EDB50F86E010EDB50F9
:101A7000F76EDF50F66EF80EDBCF0BF0DB06F90EDB
:101A8000DBCF0CF001E2DB060B500C100DE009007F
:101A9000F60EDBCFE9FFDB2AF70EDBCFEAFF01E32F
:101AA000DB2AF5CFEFFFE7D7040EE15C02E2E16A43
:101AB000E552E16EE552E5CFDAFFE7CFD9FF12003C
:101AC000D9CFE6FFDACFE6FFFA0EE3CFD9FFFB0E60
:101AD000E3CFDAFFFC0EE3CFE9FFFD0EE3CFEAFF31
:101AE000E9CFF3FFEACFF4FFF80EE35003E1F90E7C
:101AF000E35008E0F80EE30602E2F90EE306DECF5B
:101B0000EEFFF2D7FF0EE3CFDAFFE552FF0EE3CF91
:101B1000D9FFE5521200FE0EE3CFE9FFFF0EE3CF3F
:101B2000EAFFE9CFF3FFEACFF4FFFB0EE35003E156
:101B3000FC0EE35009E0FB0EE30602E2FC0EE306B6
:0A1B4000FD0EE350EE6EF1D7120027
:061B4A00FF0EE350176ED0
:101B5000EF0E01D0F30EE76EE72EACEF0DF00C0E9A
:101B6000166EE76AE72EB2EF0DF0162EB1EF0DF00C
:081B7000172EAAEF0DF0120080
:081B7800C00EF36E00EE00F058
:101B80000E0E01D81200EA6002D0EE6AFCD7F350C4
:081B9000E9601200EE6AFCD7C7
:081B98001DEE00F02DEE00F03F
:101BA000F86A0A9CC8EC0CF003EC00F0CFEC08F0EB
:041BB000FBD712004D
:0C1BB40000000200010000000000000022
:031BC0000000FF23
:0C400000030EE66ED9EC09F0E552120048
:01FFF800AB5D
:01FFF900F710
:01FFFA005DA9
:01FFFB00FB0A
:01FFFC0063A1
:01FFFD00F80B
:01FFFE008181
:01FFFF00F110
:00000001FF
